:04100000ECEF3AF0E7
:1075C200000EC26E000EC16EC180C182C184C1862E
:1075D200000E936E12001E6A1D6A1C6A1B6A1A6AEA
:1075E200196A000EF86E00017AEF3CF0086E08B0DE
:1075F20002D0819401D081848192075011EC3BF03A
:10760200818212000A6E0A508009076E000EF7ECA2
:107612003AF009504009076E000EF7EC3AF01200FA
:10762200016E000E026E070E026401D012008198F4
:1076320001BE02D0819601D0818681880150012449
:10764200016E022AF0D701500302F3CF05F0F4CF06
:1076520006F001500402F350062602500302F350D2
:10766200062605C001F006C002F01200000E0C6EE4
:10767200000E0B6E0CBE06D0F80E0B5C010E0C5801
:10768200D8B008D0000E076E010EF7EC3AF00B4AA4
:107692000C2AF0D7000E096E000E03EC3BF012002C
:1076A20011C009F0105003EC3BF00AD00EC0F6FFF7
:1076B2000FC0F7FF0800F5503DEC3CF00E4A0F2AD0
:1076C2000EC0F6FF0FC0F7FF0800F5500009D8B44E
:1076D2001200ECD708D0100E056E940EE82EFED7DD
:1076E200052EFCD700D0FF0E0126FF0E0222FF0E50
:1076F2000322FF0E04220128EEE10228ECE1032816
:10770200EAE10428D8B41200E6D703500410D8B432
:1077120018D0010E056E04D0D89003360436052A1F
:1077220004AEFAD70350015C04500258D8A004D02A
:107732000350015E0450025AD89004320332052EDF
:10774200F1D701C001F002C002F0120011C017F01F
:1077520012C018F014AE0CD011C0D9FF12C0DAFF5B
:107762002D0EDF6E114A122A136C141ED8B0142A81
:1077720011C008F012C009F013C00AF014C00BF0D7
:1077820015C00CF016C00DF0BFEC3CF012000EC09C
:1077920009F00D5003EC3BF0000E126E000E116E5C
:1077A20012BE06D0F80E115C010E1258D8B01200AB
:1077B20011500B240F6E12500C20106E0FC0F6FFEA
:1077C20010C0F7FF0800F5CF07F0010EF7EC3AF012
:1077D200114A122AE5D79390939293949396939891
:1077E2008182819000F08180210E076E000EF7ECFD
:1077F2003AF0B00E076E000EF7EC3AF0040E076E88
:10780200000EF7EC3AF0140E076E000EF7EC3AF0A9
:10781200200E076E000EF7EC3AF00C0E076E000E0B
:10782200F7EC3AF01200000E066E000E056E0350E1
:107832000410D8B41CD0010E076E04D0D8900336C1
:107842000436072A04AEFAD7D89005360636035016
:10785200015C04500258D8A005D00350015E0450C8
:10786200025A0580D89004320332072EEDD705C0A4
:1078720001F006C002F012000B6E000E076E010E40
:10788200F7EC3AF0000E0D6E000E0C6E0DBE06D037
:107892000D5029E1050E0C5CD8B025D0E00E0B246A
:1078A200016E026AFF0E0222000E046E050E036EC6
:1078B20024EC3BF0E50E096E7B0E0A6E01500926A0
:1078C20002500A220C5009260D500A2209C0F6FF66
:1078D2000AC0F7FF0800F5CF07F0010EF7EC3AF007
:1078E2000C4A0D2AD3D7000E076E010EF7EC3AF0C0
:1078F2001200E1EC3AF0ECEC3BF037EC3BF00A0E14
:10790200016E000E026E000E036E000E046E6BEC32
:107912003BF0000E1A6E000E196E11EC3DF0194A82
:107922001A2AD30E195C040E1A58D8A00CD0300EA5
:107932001B6E300E1C6E300E1D6E300E1E6E000E53
:107942001A6E000E196E1B0E116E000E126E19C009
:1079520013F01AC014F0000E166E0A0E156EA7EC84
:107962003BF06EEC3DF0C80E016E000E026E000E92
:10797200036E000E046E6BEC3BF0D1D70AC00EF022
:107982000BC00FF00EC001F00FC002F00CC003F0EC
:107992000DC004F014EC3CF001C00EF002C00FF078
:1079A200084A092A0E500F10D8A4ECD708C0D9FFF4
:1079B20009C0DAFF000EDF6E0806D8A009060AC069
:1079C20001F00BC002F00CC003F00DC004F086EC15
:1079D2003BF00150106E0AC001F00BC002F00CC067
:1079E20003F00DC004F014EC3CF001C00AF002C038
:1079F2000BF0090E106402D0070E1026300E10266E
:107A020008C0D9FF09C0DAFF10C0DFFF0806D8A0FE
:107A120009060A500B10D8A4D2D7084A092A120024
:107A2200C50E0B6E7D0E0C6E000E0D6E000E0E6EF0
:107A3200C8EC3BF0B80E016E0B0E026E000E036E28
:107A4200000E046E6BEC3BF037EC3BF0CA0E0E6E90
:107A52007F0E0F6E000E106E000E116E51EC3BF099
:107A6200E30E0E6E7F0E0F6E000E106E090E116E7B
:107A720051EC3BF0EE0E0E6E7F0E0F6E000E106E8E
:107A8200120E116E51EC3BF0D70E0E6E7F0E0F6E82
:107A9200000E106E1B0E116E51EC3BF0BD0E0E6E01
:107AA2007F0E0F6E000E106E240E116E51EC3BF025
:107AB200B80E016E0B0E026E000E036E000E046E07
:107AC2006BEC3BF0300E1B6E300E1C6E300E1D6EDA
:107AD200300E1E6E37EC3BF0120037EC3BF0F70E27
:107AE2000E6E7F0E0F6E000E106E000E116E51ECB8
:107AF2003BF01A500DE10A0E195CD8B009D00A0EFB
:107B0200096E000E03EC3BF01B503DEC3CF0120002
:107B12001A5004E10A0E195CD8A017D01A5015E1C8
:107B2200640E195CD8B011D00A0E096E000E03EC77
:107B32003BF01B503DEC3CF00A0E096E0A0E03ECC2
:107B42003BF01C503DEC3CF012001A5004E1640E74
:107B5200195CD8A01FD0E80E195C030E1A58D8B0D1
:107B620019D00A0E096E000E03EC3BF01B503DECDF
:107B72003CF00A0E096E0A0E03EC3BF01C503DEC81
:107B82003CF00A0E096E140E03EC3BF01D503DEC66
:107B92003CF01200E80E195C030E1A58D8A012002D
:107BA2000A0E096E000E03EC3BF01B503DEC3CF05C
:107BB2000A0E096E0A0E03EC3BF01C503DEC3CF041
:107BC2000A0E096E140E03EC3BF01D503DEC3CF026
:107BD2000A0E096E1E0E03EC3BF01E503DEC3CF00B
:107BE200120000000000000000005F00000007001B
:107BF2000700147F147F14242A7F2A122313086497
:107C02006236495522500005030000001C22410043
:107C12000041221C0014083E081408083E0808000F
:107C220050300000080808080800606000002010BA
:107C32000804023E5149453E00427F4000426151E4
:107C420049462141454B311814127F1027454545BD
:107C5200393C4A49493001710905033649494936D7
:107C6200064949291E003636000000563600000833
:107C720014224100141414141400412214080201A5
:107C8200510906324979413E7E1111117E7F4949DF
:107C920049363E414141227F4141221C7F494949A7
:107CA200417F090909013E4149497A7F0808087F55
:107CB20000417F41002040413F017F081422417F63
:107CC200404040407F020C027F7F0408107F3E410B
:107CD20041413E7F090909063E4151215E7F091952
:107CE2002946464949493101017F01013F4040404F
:107CF2003F1F2040201F3F4038403F631408146359
:107D020007087008076151494543007F414100025D
:107D1200040810200041417F000402010204404097
:107D2200404040000102040020545454787F4844EB
:107D320044383844444420384444487F38545454E6
:107D420018087E0901020C5252523E7F0804047840
:107D520000447D40002040443D007F102844000044
:107D6200417F40007C041804787C0804047838447D
:107D72004444387C14141408081414187C7C080435
:107D820004084854545420043F4440203C404020BE
:107D92007C1C2040201C3C4030403C44281028449D
:107DA2000C5050503C4464544C440008364100008E
:107DB200007F0000004136080010080810087846CD
:107DC20041467800000000000000000000000000B2
:107DD20000000000000000000000000000000000A1
:107DE2000000000000000000000000000000000091
:107DF2000000000000000000000000000000000081
:107E02000000000000000000000000000000000070
:107E12000000000000000000000000000000000060
:107E22000000000000000000000000000000000050
:107E32000000000000000000000000000000000040
:107E42000000000000000000000000000000000030
:107E52000000000000000000000000000000000020
:107E62000000000000000000000000000000000010
:107E72000000000000000000000000000000000000
:107E820000000000000000000000000000000000F0
:107E920000000000000000000000000000000000E0
:107EA20000000000000000000000000000000000D0
:107EB20000000000000000000000000000000000C0
:107EC20000000000000000000000000000000000B0
:107ED20000000000000000000000000000000000A0
:107EE2000000000000000000000000000000000090
:107EF2000000000000000000000000000000000080
:107F0200000000000000000000000000000000006F
:107F1200000000000000404040000000000000009F
:107F2200000000000000000000000000000000004F
:107F3200000000000000000000000000000000003F
:107F4200000000000000000000000000000000002F
:107F5200000000000000000000000000000000001F
:107F6200000000000000000000000000000000040B
:107F720015150400000000000000000100000100CF
:107F820000000011110000000000010000010000CB
:107F9200000415150400000111000000000000009B
:107FA20011110000000000000000000000000000AD
:107FB20000000000000000000000004D504C414253
:107FC20058202620584338004C69627265726961F4
:107FD200204C4344004D724368756E636B75656552
:107FE200004E6F6B6961203531313000436F6E7422
:0E7FF20061646F7200436F6E74656F3A000039
:020000040020DA
:08000000FFFFFFFFFFFFFFFF00
:020000040030CA
:0E000000240E3F1EFF8181FF0FC00FE00F4056
:00000001FF
